:02000002B0004C
:1040000000400B007C7F0B00000006000C00050246
:084010000401E50C00000000B2
:0440180014710B0014
:1040200009480A49884208B505D0094A824202D0A7
:10403000121A02F0BDFF0748074A0021121A02F0C7
:10404000C5FF014808BD00BFD0E50320E87E0B0096
:104050003CE603203CE60320EDE7032070B5074E65
:10406000074C01F019FFA41BA4080025AC4200D1A5
:1040700070BD56F8043B98470135F7E79C7E0B006E
:10408000C07E0B0000F020B808B500F029F8BDE8AC
:10409000084001F0B9BE01F0F1BB01F0F7BB000030
:1040A00008B5034A03490C2001F04CFBFEE700BFB2
:1040B000D5540B0028710B000078B0FA80F040094D
:1040C000704701230370704708B5044800F0F6FC00
:1040D000BDE80840014800F0ADBE00BF48E603203F
:1040E000D0B50F2002F015FAC11702F02DFC2CA359
:1040F000D3E9002302F05EFC2BA3D3E9002302F0F6
:1041000083FD214B214C002202F09CFA0022204B1F
:1041100002F050FC064620460F4600F08BFE4FF0A2
:104120000F1320460121236100F079FC47EC106B4E
:104130004FF0011302212046636101F0F3FD1549A0
:10414000204601F0F5FC0EA3D3E9002330463946A2
:1041500002F030FC104B002202F076FA41EC100B1A
:104160000221204601F0DEFD0C49204601F0E0FC72
:10417000204601F0CDF8BDE8D040642001F018BE23
:10418000CDCCCCCCCCCCFC3F0000E03F48E60320BB
:10419000000059403D710B000000404044710B008D
:1041A0006666666666660A400000000000FEAF4074
:1041B00010B5094B094A9A600024C3E90044032062
:1041C00001F0C8FA2146012001F0D4FABDE8104000
:1041D0000348072100F044BC3CE603200000FFFF39
:1041E00048E60320704710B510210446FFF755FF3D
:1041F000204610BD0EB403B503AB002153F8042BC9
:10420000019301F092FD02B05DF804EB03B070473A
:1042100073B5044608462279A36832B1A3B90B49A5
:1042200002B0BDE8704001F083BC094A267B094D0D
:104230000949647B012E18BF2946CDE900140749BE
:10424000FFF7D8FF02B070BD054AEFE757710B00CA
:1042500043710B0053710B004F710B006D710B001C
:1042600046710B002DE9F04F85B01F46BDF938802F
:10427000BDF83C30A8EB0209A7EB010AB9F1000F29
:10428000B8BFC9F10009BAF1000FB8BFCAF1000AFE
:10429000D14583460C46154604DD3A462C46474632
:1042A0000D469046BC4205DD2A46454690462246CC
:1042B0003C4617463E1BB2B20092A8EB050282EACA
:1042C000E271A1EBE271C6F3C03202FA86F645450F
:1042D000B4BF01224FF0FF32019176100292BC422E
:1042E0001CDCDBF800200393D145D2F81880C7BF4F
:1042F000294622462A4621465846C047019A039B32
:10430000B61AB1B236B2002E05DA029A1544009AF6
:1043100056182DB236B2013424B2E0E705B0BDE83C
:10432000F08F704710B404682469A4465DF8044B0C
:10433000604730B40468BDF808500295A46BA446E9
:1043400030BC604730B40468BDF808500295E46B97
:10435000A44630BC604770B4BDF90C50BDF8106085
:104360000468CDE90356246CA44670BC60472DE96F
:10437000F3411C460368BDF820805B69054616467C
:10438000013C34440F4624B298472B68CDF8048092
:1043900000949C6A28463B4632463946A0472B6823
:1043A000DB6A284602B0BDE8F04118472DE9F34129
:1043B0001D460368BDF820805B69044617460E461B
:1043C0009847CDE9007822686B1E3344956A2046F1
:1043D0001BB23A463146A8472368DB6A204602B042
:1043E000BDE8F04118472DE9F3471E460368BDF9C3
:1043F00028905B69BDF82C800C4605461746984707
:104400002644B4422B680BDACDF80080D3F820A004
:1044100021464B463A4628460134D04724B2F0E7BD
:10442000DB6A284602B0BDE8F047184713B50268BA
:104430000191B0F90E100091146CB0F90C3000220B
:104440001146A04702B010BD2DE9F7439942164628
:10445000BDF92870BDF82C90026880460D461C46B8
:1044600013D1BE42C8BF3346CDF82890C4BF3E46E4
:104470001F467B1C946B9B1B1BB232462946404651
:10448000A44603B0BDE8F0436047BE420AD199425A
:10449000C2BF0B4625461C46631CCDF82890D46B42
:1044A0005B1BE9E753699847CDE90079D8F80030FC
:1044B00040469F6A324623462946B847D8F800301E
:1044C000DB6A404603B0BDE8F04318472DE9F347E7
:1044D0001D460368BDF82C805B69BDF92890044631
:1044E0000F46164698472368CDF80080D3F824A0DD
:1044F00032462B4639462046D0472368CDF8008007
:1045000009F1FF323244D3F824A039462B46204625
:1045100012B2D0472368CDF80080D3F820A03246ED
:104520004B4639462046D0476B1ED9192368CDF833
:1045300000801D6A20464B46324609B2A8472368D0
:10454000DB6A204602B0BDE8F0471847704701F02B
:104550000303B0F90A208376C907B0F9083059BFC0
:104560008381C2818281C3817047000030B542815E
:10457000C281074A074D0181002481814FF0FF313C
:10458000C0E905124460056004610477046230BD2F
:104590000101000194760B002DE9F04F89B0CDE9BF
:1045A00002120268BDF948800493BDF94C3052698B
:1045B0000593BDF850A00446904718F107024FF04C
:1045C000000648BF08F10E024FEAE20B019635469D
:1045D000039B019ABDF904109A18059B8B4212B2F5
:1045E00027DD049B33444FF0000906930FFA89F04E
:1045F00080451FFA89F117DD4F0705BF069BC010E4
:104600006D001D5C18BFEDB22B060AD5029B206819
:1046100007921944836909B21F4620465346B8479A
:10462000079A09F10109E1E7019B013301935E4417
:10463000CEE72368DB6A204609B0BDE8F04F184793
:104640002DE9F04F2DED028B91B01646026ABDF8B0
:1046500074809DF878509DF87C4003911F46BDF80A
:10466000703004938346002A40F0C580B0F90C30C6
:104670008B4240F34C81B0F90E30B34240F3478196
:10468000062313FB0513002B40F3418106EBC40303
:10469000002B40F33C81037F1BB9AF2F84BF013750
:1046A000FFB2DBF8003058465B6998470522099253
:1046B00000220592984A07EB8703D3180C93B3B2F4
:1046C0000693059A0C9B9B5C0793ABB20B93BDF8CA
:1046D0000C300893039B02FB05F919FA83F90FFAD2
:1046E00089F308EE103A08230A93039B02EB030AAE
:1046F0004FF000090FFA8AFA079ADBF80030D20768
:1047000052D5012D1FFA89F23ED1012C3CD19B6973
:1047100006991F46049B0A4412B251465846B847B0
:1047200009F101034FFA83F9079B5B0807930A9B82
:10473000013B13F0FF030A93DED1059F01377BB2E3
:104740000593099B013B13F0FF030993B9D1049B27
:1047500043450FD0012DDBF800303BD1012C39D17E
:104760000899CDF8008005311C6A3246082309B249
:104770005846A047DBF80030DB6A584611B0BDEC64
:10478000028BBDE8F04F1847069914FB02F20A4469
:10479000049901910094DB6918EE101A1F4612B2B9
:1047A0002B465846B847BBE7049A4245B8D0012D7E
:1047B0001FFA89F207D1012C05D19B6906991F4682
:1047C0000A444346A8E70699CDF8048014FB02F298
:1047D0000A44DFE70B9ACDF8048002EB8201089AC5
:1047E000E4000A4411460094DC6932462B4609B2C3
:1047F0005846A047BEE7137A516812680B92FF1A19
:10480000FFB201EBC70331F8372006929A7809927C
:10481000DA780C92012D93F9052093F906A00A92FB
:1048200001D8012C57D9BDF9283008930FFA8AF323
:104830000793DBF8003058465B699847B3B24FF0F6
:1048400000080E931AFA86F3C14647460F930C9B55
:104850009F428FD2079B0E9A3B4403FB0423002206
:1048600005920F9A1BB202EB070A08EE103A0FFAF4
:104870008AFA4346099A0599914241D25A1CD2B20A
:104880005B070D9207D1069B06990B9A01339BB2E9
:1048900012F80190069319F0800F12D0012DDBF869
:1048A0000030BDF80C101AD1012C18D10A9A9B695E
:1048B0001144059A11441E465246049B09B25846BB
:1048C000B047059E0136F3B24FEA490905935FFAF6
:1048D00089F90D9BCEE70023CDE90733A9E70598B9
:1048E000089A024402FB0511049ACDE90042DB69F3
:1048F00018EE102A1E4609B22B465846B047E0E78C
:10490000099B013798445FFA88F8FFB29FE711B01E
:10491000BDEC028BBDE8F08F8A710B00F0B5026A26
:1049200085B004460B46002A34D10A2908D1438AAF
:104930000282427E03EBC2036382012005B0F0BD18
:104940000D29FAD0E17E007E657E71B1B4F9106068
:10495000062111FB0061B4F90C60B142C1BFB4F98A
:104960001210228201EBC5026282E28A0192A28ABF
:104970000092CDE90205B4F91220B4F910102046D6
:10498000FFF75EFE237E228A03EB430302EB430321
:104990002382D2E70A2907D100230382417E927A3B
:1049A000438A01FB0233C7E70D29C6D0157AA94215
:1049B000C3D3517A9942C0D351685D1BEDB201EB6C
:1049C000C505A87828B3E97819B3E17E267E677E0D
:1049D00091B195F905100844B4F9101006FB0011C7
:1049E000B4F90C00814207DD00202082B4F91210D6
:1049F000927A02FB07126282E28A0192A28A0092F4
:104A0000CDE90267B4F91220B4F910102046FFF77F
:104A100017FE2979227E238A01FB0233B8E7012998
:104A200038BF0121017641767047000010B5064B72
:104A300003600446006D08B100F064FD204600F0FC
:104A400087F8204610BD00BFEC760B0010B5044679
:104A5000FFF7ECFF20467021FFF71FFB204610BD3B
:104A600030B585B004460D4601F0C2FD104A11492B
:104A7000CDE901214FF0FF3280210346009220460C
:104A8000202200F0DDF80C4B23600023C4E914352C
:104A900004F1580000F03BF804F1600000F037F832
:104AA00004F1680000F033F8204605B030BD00BFC7
:104AB000801A0600A0860100EC760B0013B50446B0
:104AC000503000F017FD636DD90705D5022204218F
:104AD00004F1580000F02FF8636D9A0705D5002205
:104AE000032104F1600000F026F8636D5B0705D533
:104AF0000222114604F1680000F01DF80123009322
:104B00003C220221204600F0A3F902B010BD002192
:104B10000A22C0E900127047002310B50446C17193
:104B2000837188B201F0E2FC08B10323A37100F0A5
:104B3000D9FC206010BD38B50C4605461146A0B220
:104B400001F0AAFC21462846BDE83840FFF7E4BF43
:104B500010B5044B03600446C06A08B100F096FE2D
:104B6000204610BDF87B0B0010B50446FFF7F0FFA0
:104B700020465021FFF791FA204610BD002910B5BC
:104B80004BDBB0F90C408C4247DD002A45DBB0F925
:104B90000E40944241DD847E022C1FD0032C26D08F
:104BA000012C04D10489D24314440A4621B2012BBA
:104BB00023D0022B32D083BB002A13460489C06A5B
:104BC000B8BFD31DDB1013FB041102F00702012351
:104BD0009340425C22EA030242541EE00489013CF5
:104BE000611A4489D243224409B212B2DFE74489F0
:104BF000013C641A114622B2D9E7002A04891346FF
:104C0000B8BFD31DDB1013FB0411C36A02F0070009
:104C100001228240585C02435A5410BD002A1346B8
:104C20000489C06AB8BFD31DDB1013FB041102F066
:104C30000702012303FA02F2435C5A40CCE700006A
:104C400070B504461D460026FFF790FC114B23600B
:104C5000666215B901F0CCFC0546FF2384F83330B9
:104C600084F836309DF9103084F837300A4BA3634E
:104C7000012384F83C30059BA3644FF6FF72069B2A
:104C8000A286C4E90A562664A4F84460E364204678
:104C900070BD00BFF87B0B0044770B00F8B50446ED
:104CA000806A0D4690B194F9301001F0BDFAA06A07
:104CB000036800219B689847A06A036829469B689F
:104CC0009847A06ABDE8F84001F0B5BA94F93530CC
:104CD000014698B201F0F1FB606A20B12946BDE8B7
:104CE000F84000F0DDBE0826802794F9330005EA7D
:104CF000070180B201F0E1FB94F93400012180B298
:104D000001F0DBFB94F93400002180B201F0D5FB07
:104D1000013E4FEA5707E8D1F8BD38B50446806A2E
:104D20000D4680B1A16C01F071FA002D204614BF30
:104D3000A721A621FFF7B2FFA06A88B1E16CBDE808
:104D4000384001F063BA606A18B104F1380100F02C
:104D500039FE94F93600002180B201F0AEFBE4E7A1
:104D600094F93600012180B201F0A7FB606A18B106
:104D7000BDE8384000F00CBE38BD2DE9F8430446CC
:104D8000806A0D468F1840B394F9301001F04CFA48
:104D9000A06A036800219B6898470126AF42A06A79
:104DA00017D01F2E0CD901F046FA94F93010A06AE2
:104DB00001F03AFAA06A036800219B68984701262F
:104DC000A06A15F8011B036801369B689847F6B284
:104DD000E4E7BDE8F84301F02EBA94F93530014616
:104DE00098B201F06AFBBD4222D0606A15F8019BBF
:104DF00018B1494600F054FEF5E708264FF0800848
:104E000094F9330009EA080180B201F056FB94F9E5
:104E10003400012180B201F050FB94F934000021EC
:104E200080B201F04AFB013E4FEA5808E8D1DAE7C8
:104E3000BDE8F883B0F90A30DA1D48BF03F10E026D
:104E4000B0F90830C06AD2105A43002102F0BEB84F
:104E50002DE9FF411E46C36A9DF8288004460F468F
:104E60001546C3B12046FFF7E5FFB4F90A00B4F9CF
:104E70000810202821DC202301222038CDE901322E
:104E800000EBD07073237339009301EBD171894B20
:104E900040F34F0221E0B0F90A30D81D48BF03F1BA
:104EA0000E00B4F90830C010584300F0E7FCE0628F
:104EB0000028D7D104B0BDE8F0814038C0F3C0323B
:104EC00002FA80F240230120CDE901305223523909
:104ED0000093794B01EBD1715210204641F34F0101
:104EE000FFF75AFBA06A84F83170002878D0002DB3
:104EF00074D1B4F90A30202B0CBF3C253D2584F831
:104F00003050B8F1000F01D001F084F9FEB194F9EE
:104F1000370000281BDB012180B201F0BDFA94F9B3
:104F20003700012180B201F0C8FA012000F040FFF3
:104F300094F93700002180B201F0BFFA0A2000F096
:104F400037FF94F93700012180B201F0B6FAA06A68
:104F5000002874D0A16C01F059F904225749204669
:104F6000FFF70BFF61890139C9B22046FFF796FEB2
:104F7000534904222046FFF700FF94F93130012BFA
:104F80000CBF102114212046FFF788FE04224D4952
:104F90002046FFF7F2FEA3684B4A93425CD14B498F
:104FA00004222046FFF7E9FED9212046FFF776FECE
:104FB00094F93130012B0CBF2221F1212046FFF75B
:104FC0006DFE204642490622FFF7D7FEA06A002860
:104FD00063D0E16C01F01AF901206BE76DB28EE746
:104FE00094F93500012180B201F056FA94F93600A7
:104FF000012180B201F050FA94F93600012180B20B
:1050000001F05BFA656A3DB1B8F1000F3FF47EAF85
:10501000284600F0A9FC79E794F93300012180B219
:1050200001F03AFA94F93400012180B201F034FA27
:1050300094F93400294680B201F03FFA66E7606ACD
:1050400018B104F1380100F0BDFC94F936000021DC
:1050500080B201F032FA80E71E4A93420ED11E4917
:1050600003222046FFF789FE94F93130012B0CBF53
:105070009F21CF212046FFF711FE95E7174A934263
:1050800092D1174903222046FFF777FE94F9313079
:10509000012B0CBF1021AF21ECE794F93600012160
:1050A00080B201F00AFA606A002895D000F070FC26
:1050B00092E700BF107A0B0050770B00587C0B0072
:1050C0005C7C0B00607C0B00800020006A7C0B0085
:1050D000647C0B00800040006E7C0B0060001000C0
:1050E000717C0B0070B5002ABDF810503DDBB0F9A3
:1050F0000A40944239DD0029BEBF5B181BB2002173
:10510000B0F90840CE18A642C4BF631A1BB2002BE8
:105110002BDDC06AD61014FB0611014402F0070013
:1051200001228240012DD2B216D0022D0BD0E5B95A
:10513000D243D2B20B44994217D011F8010B104060
:1051400001F8010CF7E70B4499420ED011F8010B5E
:10515000504001F8010CF7E70B44994205D011F8D3
:10516000010B104301F8010CF7E770BDF0B5002901
:10517000BDF8145076DBB0F90860B14272DA002A4B
:10518000BEBF9B181BB20022B0F90A40D718A74235
:10519000C4BFA31A1BB2002B64DDC2F3C404C76AE8
:1051A00016FB041612F00702DBB207EB060423D04D
:1051B000C2F10802D2B22D4993423CBF4FF0FF0C1E
:1051C000A2EB030E895C3CBF4CFA0EFC0CEA010119
:1051D000012D07D0022D2ED04DB917F806C02CEAAC
:1051E000010103E017F806C041EA0C01B9559342EA
:1051F00038D3B0F908100C449A1AD2B2072A0ED943
:10520000022D1DD113462178C9432170083BB0F906
:105210000810DBB2072B0C44F5D802F007020AB3E2
:10522000134B012D9B5C1AD0022D1CD0D5B92278CE
:1052300022EA030315E017F806C081EA0C01D5E75E
:10524000291E18BF01214942C9B213462170083BEB
:10525000B0F90860DBB2072B3444F7D8DDE72278D9
:1052600013432370F0BD22785340FAE7487C0B00CB
:10527000507C0B0070B41446827EBDF80C60022A8C
:105280000DD0032A18D0012A11D10289E443144415
:1052900024B203960A46214670BCFFF767BF4289D5
:1052A0000589E44319441444691A24B209B20396E7
:1052B000224670BCFFF716BF45891944691A09B226
:1052C000E7E730B41446827EBDF80850022A0DD0BC
:1052D000032A18D0012A11D1E2180489A41A24B291
:1052E00002950A46214630BCFFF7FCBE0289C9433D
:1052F0001144E2184489A41A09B224B20295224644
:1053000030BCFFF733BF4289C943114409B2E7E714
:105310002DE9F8430446806A002842D0A16C00F0D1
:1053200075FF474905222046FFF727FD21890139EE
:105330002046C9B2FFF7B2FCB4F90A30DE1D48BFFF
:1053400003F10E06D4E90A052389F61013FB06F6CD
:1053500015FA86F600283AD094F9301000F064FF70
:10536000A06A036840219B6898470127B542A06A5C
:1053700024D01F2F0CD900F05EFF94F93010A06AE2
:1053800000F052FFA06A036840219B6898470127FC
:10539000A06A15F8011B036801379B689847FFB2A4
:1053A000E4E7606A18B104F1380100F00BFB94F9EE
:1053B0003600002180B201F080F8B2E700F03BFF38
:1053C000A06A78B3E16CBDE8F84300F01FBF94F920
:1053D0003500012180B201F070F8AE42F0D0606A71
:1053E00015F8019B18B1494600F05AFBF5E708276C
:1053F0004FF0800894F9330009EA080180B201F007
:105400005CF894F93400012180B201F056F894F967
:105410003400002180B201F050F8013F4FEA5808F3
:10542000E8D1DAE794F93600012180B201F045F8BD
:10543000606A18B1BDE8F84300F0AABABDE8F88385
:10544000747C0B0008B5024B1B689B68019308BD78
:105450006802030008B5024B1B68DB68019308BDB6
:105460006802030008B5024B1B685B68019308BD26
:105470002C02030008B5024B1B689B68019308BD12
:105480002C02030008B5024B1B68DB68019308BDC2
:105490002C02030008B5024B1B681B69019308BD71
:1054A0002C02030008B5024B1B685B69019308BD21
:1054B0002C02030008B5024B1B681B6B019308BD4F
:1054C0002C02030008B5024B1B685B68019308BD02
:1054D0001802030008B5024B1B68DB68019308BD86
:1054E0001802030008B5024B1B685B69019308BDF5
:1054F0001802030008B5024B1B681B6B019308BD23
:105500004802030008B5024B1B685B6B019308BDA2
:105510004802030008B5024B1B685B6C019308BD91
:105520004802030008B5024B1B685B69019308BD84
:105530006402030008B5024B1B68DB68019308BDD9
:105540003C02030008B5024B1B681B69019308BDB0
:105550003C02030008B5024B1B685B69019308BD60
:105560003C02030008B5024B1B689B69019308BD10
:105570003C02030008B5024B1B68DB69019308BDC0
:105580003C02030008B5024B1B681B6A019308BD6F
:105590003C02030008B5024B1B689B6A019308BDDF
:1055A0003C02030008B5024B1B681B6C019308BD4D
:1055B0003C02030008B5024B1B681B68019308BD41
:1055C0002802030008B5024B1B68DB68019308BD85
:1055D0002802030008B5024B1B689B69019308BDB4
:1055E0002802030008B5024B1B68DB69019308BD64
:1055F0002802030008B5024B1B681B6A019308BD13
:105600002802030008B5024B1B685B6A019308BDC2
:105610002802030008B5024B1B689B6A019308BD72
:105620002802030008B5024B1B68DB6A019308BD22
:105630002802030008B5024B1B681B6B019308BDD1
:105640002802030008B5024B1B685B6B019308BD81
:105650002802030008B5024B1B681B6C019308BDB0
:105660002802030008B5024B1B681B68019308BDA4
:105670003002030008B5024B1B685B69019308BD4B
:105680003002030008B5024B1B68DB69019308BDBB
:105690003002030008B5024B1B681B6A019308BD6A
:1056A0003002030008B5024B1B685B6A019308BD1A
:1056B0003002030008B5024B1B68DB6B019308BD89
:1056C0003002030008B5024B1B681B6C019308BD38
:1056D0003002030008B5024B1B685B6C019308BDE8
:1056E0003002030008B5024B1B681B68019308BD1C
:1056F0004C02030008B5024B1B681B69019308BDEF
:105700004C02030008B5024B1B685B69019308BD9E
:105710004C02030008B5024B1B689B69019308BD4E
:105720004C02030008B5024B1B68DB69019308BDFE
:105730004C02030008B5024B1B681B6A019308BDAD
:105740004C02030008B5024B1B685B6B019308BD5C
:105750006002030008B5024B1B685B68019308BD3B
:105760002002030008B5024B1B685B69019308BD6A
:105770002002030008B5024B1B68DB6A019308BDD9
:105780002002030008B5034B1B68D3F8883001934F
:1057900008BD00002002030008B5034B1B68D3F8C6
:1057A0009430019308BD00002002030008B5024BAD
:1057B0001B685B68019308BD4002030008B5024BFB
:1057C0001B689B68019308BD4002030008B5024BAB
:1057D0001B68DB68019308BD4002030008B5024B5B
:1057E0001B681B69019308BD4002030008B5024B0A
:1057F0001B685B69019308BD4002030008B5024BBA
:105800001B689B69019308BD4002030008B5024B69
:105810001B68DB69019308BD4002030008B5024B19
:105820001B681B6A019308BD4002030008B5024BC8
:105830001B681B6B019308BD4002030008B5024BB7
:105840001B685B6B019308BD4002030008B5024B67
:105850001B681B6C019308BD4002030008B5024B96
:105860001B685B6C019308BD4002030008B5024B46
:105870001B68DB6B019308BD4402030008B5024BB3
:105880001B681B68019308BD1C02030008B5024B8E
:105890001B685B68019308BD1C02030008B5024B3E
:1058A0001B685B6A019308BD1C02030008B5024B2C
:1058B0001B681B6C019308BD1C02030008B5024B5A
:1058C0001B685B6C019308BD1C020300002240684A
:1058D0001146FFF7A3BF002240681146FFF7AEBF95
:1058E00040680022FFF7A2BF4068002281F001015A
:1058F000FFF78CBF002340681A461946FFF77EBFAA
:10590000002340681A461946FFF770BF002240681E
:105910001146FFF763BF002240681146FFF74EBFF4
:10592000406800220221FFF751BF002340681A4659
:10593000FFF73CBF024B03225A60024A1A607047CD
:10594000C4E60320847C0B000021FFF7C3BE0021C6
:10595000FFF7B8BE10B5044608462170FFF792FE67
:1059600000236360204610BD13B504460078FFF79E
:10597000EEFF58B9207801904FF6FF71FFF772FEE5
:10598000019802B0BDE81040FFF7DEBF02B010BDC5
:105990000078FFF7D9BF0000400830B51860002438
:1059A00018688842E5B206D90134082C02D04008B4
:1059B0001860F5E70725024B5B5D137030BD00BF33
:1059C000B87C0B002DE9F04306468FB000780C46FA
:1059D000FFF7BDFF00281BDB35781422002109A842
:1059E00001F0F4FA0B23002209A92846ADF824306F
:1059F000FFF758FE9DF82D3013B19DF82C5055B18E
:105A00000027B946B846012523795DB1C3B100200E
:105A10000FB0BDE8F083DDF830809DF834909DF83C
:105A20003570F1E7002B35D1A368434508D18DF8D7
:105A300020908DF82170BDF82020A3899A42E6D0ED
:105A40000023A1688DF80F300A9804AB0DF10F0206
:105A5000FFF7A2FF217985B989B9A36843450ED321
:105A60008DF820908DF82170BDF82020A3899A42EE
:105A700005D1049B434502D1C9E70029F9D1002390
:105A80000193637B00939DF80F20237B3078FFF711
:105A900011FEBCE7CDE900552B462A460121F5E76A
:105AA00008B50078FFF7E6FDC0B208BD054B02223D
:105AB0001A60054B054A9A600020C3E90000FFF711
:105AC00049BE00BFD8E60320CCE603200000FFFF5C
:105AD000024800230360FFF71DBD00BFDCE6032082
:105AE000F8B506460D468F180024BD420CD0336829
:105AF00015F8011B9B6830469847031E01DB1C44C8
:105B0000F3E7002C08BF1C462046F8BD13B5044639
:105B1000084659B1019101F08FFA23680199DB68B9
:105B20000246204602B0BDE81040184702B010BD42
:105B300008B5FFF7EBFF08BD03689B68184738B549
:105B40000D210546FFF7F8FF0A2104462846FFF716
:105B5000F3FF204438BD30B58BB00023012A8DF807
:105B6000243098BF0A2209AC0D46B1FBF2F101FBCB
:105B7000125303F0FF03092B94BF30333733DBB2EA
:105B8000AA4204F8013DEFD92146FFF7BFFF0BB051
:105B900030BD00002DE9F74F55EC104B06460F467F
:105BA00010EE102A10EE100A2B46294601F09CF93F
:105BB00040B153493046FFF7A9FF8246504603B033
:105BC000BDE8F08F25F000494E4B4FF0FF322046E4
:105BD000494601F089F948B94A4B4FF0FF32204657
:105BE000494601F063F908B94749E3E7474B4FF0ED
:105BF00060422046294601F06DF908B14449D9E7D1
:105C0000444B4FF060422046294601F045F90028F8
:105C1000F4D1002200232046294601F03DF9D0B1FD
:105C20002D213046FFF788FF05F1004382461D46CF
:105C30003949DFF8EC904FF0000B00204FF00008DE
:105C40005FFA8BF39F4208D942464B4600F0DCFFD7
:105C50000BF1010BF4E78246EAE722462B4600F0FF
:105C6000F3FC0D46044601F07DF9804600F028FE65
:105C700002460B462046294600F0E4FC0A22044670
:105C80000D4630464146FFF766FF8244002F95D00F
:105C90002249DFF88C903046FFF738FF4FF00008BC
:105CA0008244002F8AD042464B462046294600F0C7
:105CB00081FE04460D4601F02DF9B0F1000B1CDA0F
:105CC0002D213046FFF738FFCBF1000103460A22B1
:105CD00030460193FFF73FFF019B1844824458462A
:105CE00000F0FEFD02460B462046294600F0AAFCC5
:105CF000013F04460D46FFB2D3E759460023E6E7CD
:105D0000C07C0B00FFFFEF7FC47C0B00FFFFEF4167
:105D1000C87C0B00FFFFEFC10000E03FCC7C0B0014
:105D200000002440C9B2FFF735BF2DE9F04186B02D
:105D300000AF05460E46381D142114463B60FFF7A0
:105D4000ADFD13280ED8391D2846FFF7DFFE0446A7
:105D50001EB12846FFF7F3FE044420461837BD461F
:105D6000BDE8F08100F1080323F00703E846ADEB3E
:105D7000030D2246411C3B686846FFF78FFD6946CC
:105D80002846FFF7C3FE0446C546E1E7014B024A39
:105D90001A607047E0E60320CE7C0B00024B1A68C5
:105DA000024B1A60704700BFD0E50320E4E60320F1
:105DB0000021FFF7D7BC0000014B00229A6070471A
:105DC000E8E60320014B1860704700BFD4E50320CC
:105DD00008B50B4B43B100F063F903681B699847A2
:105DE000002801DDAFF30080064B43B100F0C4FB97
:105DF00003681B699847002801DDAFF3008008BDE8
:105E0000000000000000000008B5FFF7E1FFFFF709
:105E100069FB014B186008BD40E703200548064AAE
:105E2000064908B5121A01F0C3F8054B054A1A6075
:105E300008BD00BF00F4032004F40320E47E0B003F
:105E400000F403201E1C279A07B5002300931A466E
:105E50006FF07701FFF7A0FC03B05DF804FB0000D2
:105E600007B543880A2B08D0502B0BD1094B1B6870
:105E70004BB103B05DF804EB1847FFF7E5FF03B043
:105E80005DF804FB002300931A466FF07701FFF7DB
:105E900083FCF4E7FCE6032010B512480021FFF76D
:105EA0000DFD114B1A68114B9A42114B0CBF012288
:105EB00000221A7001D0FFF7B1FFFFF703FB044681
:105EC00001F08CF80B4B13B12046AFF3008000219A
:105ED0000848FFF7CBFCBDE8104007480021FFF75A
:105EE00051BC00BFC55D0B0000F403201E1C279AA7
:105EF000F8E6032000000000615E0B00704710B55B
:105F000018210446FEF7C9F8204610BDF0B5037D00
:105F1000062B8DB00E4600F104074FF0000412D09E
:105F200000F1080515F8011D0A223046FFF713FE9F
:105F3000AF42044419D0002CF4D02E213046FFF794
:105F4000FBFD0444EEE72F236A4639460A208DF80C
:105F50000040FFF7E7FA684601F06EF83368024642
:105F6000DB68694630469847044620460DB0F0BDD0
:105F700010B5054B0446112240F8043B002101F006
:105F800025F8204610BD00BFF87C0B000346074AE9
:105F900010B543F8042B01F1100251F8044B43F8FB
:105FA000044B9142F9D10A781A7010BDF87C0B00AD
:105FB00010B59DF8084044EA032343EA024242EA4E
:105FC000016104234160037510BD000007B5064B55
:105FD0000360CB7800938B784A780978FFF7E8FF65
:105FE00003B05DF804FB00BFF87C0B004174704700
:105FF0007047704708B50021007CFFF78BFB40EA33
:10600000E07008BD08B50121007CFFF783FB40EA82
:10601000E07008BD08B5007CFFF774FB20EAE07073
:1060200008BD08B5007CFFF765FB20EAE07008BDFD
:1060300013B50446007C0191FFF764FB0028019929
:1060400001DC607C20B1207CFFF76CFB20EAE07073
:1060500002B010BD007CFFF76DBB10B514210446E3
:10606000FEF71BF8204610BD10B54FF47A730446B6
:1060700008460021C4E90113044B23600123207466
:1060800063741146FFF72EFB204610BD0C7D0B00FC
:1060900010B514220446002100F098FF204610BDE0
:1060A00010B50F4C88B003A8FFF7F2FF2178BFF3BB
:1060B0005B8F11F001010FD120460191FDF7FCFF2C
:1060C000019948B103AA0748FFF7CEFF2046FDF724
:1060D000F8FF054800F066FF024808B010BD00BF99
:1060E00000E7032004E70320F15F0B0070474174D1
:1060F000704708B5007CFFF74DFA20EAE07008BD54
:1061000008B5007CFFF71EFA20EAE07008BD08B56C
:10611000007CFFF727FA40EAE07008BD08B5007C74
:10612000FFF718FA40EAE07008BD007CFFF722BADA
:1061300037B5457C04462DB1207C03B0BDE8304026
:10614000FFF7F8B9007C0191FFF724FA00280199C4
:10615000F2DC284603B030BD10B514210446FDF72B
:106160009CFF204610BD000010B54FF47A73044622
:10617000084611460022C4E90123044B2360012391
:1061800020746374FFF70EFA204610BD3C7D0B00AF
:106190007047F8B5064615460C468F18BC4206D027
:1061A000336814F8011B9B6830469847F6E7284689
:1061B000F8BD007C0022FFF71DBA007C0021FFF72C
:1061C00021BA007C0021FFF725BA007C0021FFF7EF
:1061D00029BA007C0021FFF72DBA10B5142104461E
:1061E000FDF75BFF204610BD10B54FF47A730446EF
:1061F00008460021C4E90113034B236020741146B3
:10620000FFF728FA204610BD6C7D0B00007C0022B1
:10621000FFF7D0B90023007C1A461946FFF7D2B920
:10622000007C0022FFF7D6B9C9B2FFF7F9BF007CA6
:106230000022FFF7D7B90121FFF7F9BF002240681C
:106240001146FFF7CBBA002240681146FFF7E6BAC5
:10625000002240681146FFF7F1BA40680022FFF7BC
:10626000E5BA4068002281F00101FFF7CFBA0023B0
:1062700040681A461946FFF7C1BA002340681A461B
:106280001946FFF7B3BA002240681146FFF796BAE5
:10629000406800220221FFF799BA002340681A469D
:1062A000FFF784BA024B04225A60024A1A60704710
:1062B00018E70320947D0B00002340681A46FFF77F
:1062C00075BA406800220221FFF780BA00224068B8
:1062D0001146FFF773BA002240681146FFF77EBAF5
:1062E000002340681A461946FFF780BA0023406829
:1062F0001A461946FFF782BA40680021FFF7A6BA8E
:1063000040680021FFF7AABA4068002281F001012D
:10631000FFF77CBA40680022FFF788BA0022406885
:106320001146FFF78BBA002240681146FFF776BA94
:106330002DE9F04395B014460D460746FFF718FEC9
:1063400000211C220DA8009100F040FE40230C9378
:1063500020466B460CAA0021FFF77CF80446002873
:106360004BD1024601216868FFF738FA02218046C6
:1063700022466868FFF732FA009E81462146002EC9
:106380003BD0002939D17368022B03D00A2B11D0DE
:10639000F669F4E7B8F1000FFAD0716906A8043184
:1063A00007ADFFF713FE0FCD3C1D0FC42B68237004
:1063B0004146EDE7B9F1000FEAD07469102201A857
:1063C00000F004FE06238DF8143001AD04F108033B
:1063D0001834186859682A4603C20833A342154680
:1063E000F7D101A906A807ADFFF7D0FD0FCD3C1DE1
:1063F0000FC42B6823704946CAE70098FFF722F8BC
:10640000384615B0BDE8F083024B034A1A600022FB
:106410005A60704720E70320D07D0B00232813B576
:1064200002D9002002B010BDA0F10B03022B1AD834
:10643000174C2178BFF35B8F11F001010BD120467F
:106440000191FDF739FE019928B11248FFF782FA50
:106450002046FDF736FE0F4B1878FFF71BF9002892
:10646000DFD10120DEE7012809D800F0C1F80021C2
:10647000007CFFF7E7F880F00100C0B2D2E70938EE
:106480000128EED800F078F8007CFFF77BF8F2E7FF
:10649000B8E60320BCE60320232838B504460D46A1
:1064A0000AD8FF2908D0FFF7B9FF28B129462046AE
:1064B000BDE83840FEF7DEBF38BD38B504460D46AE
:1064C000FEF7E0FFFF2810D0062804D84D2323FA5A
:1064D00000F0C30709D42046FFF7A0FF28B12946E2
:1064E0002046BDE83840FEF7D5BF38BD10B504469C
:1064F000FEF7C8FF031FDBB2012B08D92046FFF7C8
:106500008DFF20B12046BDE81040FEF7CBBF002034
:1065100010BD0D2810B504469CBF0E34A4B2204611
:10652000FFF77CFF50B103212046FEF79BFF0328B5
:1065300004D12046BDE81040FEF7BCBF002010BDCE
:106540007047000038B5044614252A46002100F0A3
:106550003DFD25804025074925812846258200F0FC
:106560006BF804496060284600F066F8E060204659
:1065700038BD00BF047E0B0030B50E4D2978BFF347
:106580005B8F11F0010487B011D12846FDF794FD0F
:1065900068B101A8FFF7D6FF01AA21460648FFF718
:1065A000E3FD2846FDF78DFD044800F0FBFC0248A2
:1065B00007B030BD28E703202CE7032041650B001E
:1065C0007047000038B52025142304460360856019
:1065D00005610649284600F02FF804496060284606
:1065E00000F02AF8E060204638BD00BF047E0B00B2
:1065F00030B50E4D2978BFF35B8F11F0010487B0E1
:1066000011D12846FDF758FD68B101A8FFF7DAFF60
:1066100001AA21460648FFF7E7FD2846FDF751FD90
:10662000044800F0BFFC024807B030BD44E7032037
:1066300048E70320C1650B00FDF72DBD81F0004147
:1066400002E000BF83F0004330B54FEA41044FEA57
:10665000430594EA050F08BF90EA020F1FBF54EAF2
:10666000000C55EA020C7FEA645C7FEA655C00F08E
:10667000E2804FEA5454D4EB5555B8BF6D420CDD5F
:106680002C4480EA020281EA030382EA000083EAE2
:10669000010180EA020281EA0303362D88BF30BD82
:1066A00011F0004F4FEA01314FF4801C4CEA1131D8
:1066B00002D0404261EB410113F0004F4FEA033337
:1066C0004CEA133302D0524263EB430394EA050FC2
:1066D00000F0A780A4F10104D5F1200E0DDB02FA31
:1066E0000EFC22FA05F2801841F1000103FA0EF2C5
:1066F000801843FA05F359410EE0A5F120050EF18B
:10670000200E012A03FA0EFC28BF4CF0020C43FABB
:1067100005F3C01851EBE37101F0004507D54FF0C8
:10672000000EDCF1000C7EEB00006EEB0101B1F518
:10673000801F1BD3B1F5001F0CD349085FEA30005E
:106740004FEA3C0C04F101044FEA445212F5800F69
:1067500080F09A80BCF1004F08BF5FEA500C50F106
:10676000000041EB045141EA050130BD5FEA4C0CE9
:10677000404141EB0101013C28BFB1F5801FE9D246
:1067800091F0000F04BF01460020B1FA81F308BF69
:106790002033A3F10B03B3F120020CDA0C3208DD35
:1067A00002F1140CC2F10C0201FA0CF021FA02F110
:1067B0000CE002F11402D8BFC2F1200C01FA02F180
:1067C00020FA0CFCDCBF41EA0C019040E41AA2BFA5
:1067D00001EB0451294330BD6FEA04041F3C1CDA6D
:1067E0000C340EDC04F11404C4F1200220FA04F08D
:1067F00001FA02F340EA030021FA04F345EA030137
:1068000030BDC4F10C04C4F1200220FA02F001FAF8
:1068100004F340EA0300294630BD21FA04F029467A
:1068200030BD94F0000F83F4801306BF81F4801113
:106830000134013D4EE77FEA645C18BF7FEA655C86
:1068400029D094EA050F08BF90EA020F05D054EA58
:10685000000C04BF1946104630BD91EA030F1EBF5D
:106860000021002030BD5FEA545C05D14000494161
:1068700028BF41F0004130BD14F580043CBF01F554
:10688000801130BD01F0004545F0FE4141F470013A
:106890004FF0000030BD7FEA645C1ABF1946104615
:1068A0007FEA655C1CBF0B46024650EA013406BF16
:1068B00052EA033591EA030F41F4002130BD00BFD5
:1068C00090F0000F04BF0021704730B54FF4806492
:1068D00004F132044FF000054FF0000150E700BF13
:1068E00090F0000F04BF0021704730B54FF4806472
:1068F00004F1320410F0004548BF40424FF000015F
:106900003EE700BF42004FEAE2014FEA31014FEAA1
:1069100002701FBF12F07F4393F07F4F81F06051F0
:10692000704732F07F4208BF704793F07F4F04BF3B
:1069300041F40021704730B54FF4607401F0004518
:1069400021F000411CE700BF50EA010208BF704778
:1069500030B54FF000050AE050EA010208BF704769
:1069600030B511F0004502D5404261EB41014FF4D2
:10697000806404F132045FEA915C3FF4D8AE4FF0DA
:1069800003025FEADC0C18BF03325FEADC0C18BFBD
:10699000033202EBDC02C2F1200300FA03FC20FA0E
:1069A00002F001FA03FE40EA0E0021FA02F114445B
:1069B000BDE600BF70B54FF0FF0C4CF4E06C1CEA74
:1069C00011541DBF1CEA135594EA0C0F95EA0C0FE5
:1069D00000F0DEF82C4481EA030621EA4C5123EA58
:1069E0004C5350EA013518BF52EA033541F4801187
:1069F00043F4801338D0A0FB02CE4FF00005E1FB3A
:106A000002E506F00042E0FB03E54FF00006E1FB83
:106A100003569CF0000F18BF4EF0010EA4F1FF04C6
:106A2000B6F5007F64F5407404D25FEA4E0E6D4106
:106A300046EB060642EAC62141EA55514FEAC52017
:106A400040EA5E504FEACE2EB4F1FD0C88BFBCF593
:106A5000E06F1ED8BEF1004F08BF5FEA500E50F144
:106A6000000041EB045170BD06F0004646EA01010A
:106A700040EA020081EA0301B4EB5C04C2BFD4EB3C
:106A80000C0541EA045170BD41F480114FF0000E35
:106A9000013C00F3AB8014F1360FDEBF002001F0A3
:106AA000004170BDC4F10004203C35DA0C341BDC1D
:106AB00004F11404C4F1200500FA05F320FA04F0EF
:106AC00001FA05F240EA020001F0004221F0004123
:106AD00010EBD37021FA04F642EB06015EEA430E96
:106AE00008BF20EAD37070BDC4F10C04C4F12005C6
:106AF00000FA04F320FA05F001FA04F240EA020079
:106B000001F0004110EBD37041F100015EEA430E49
:106B100008BF20EAD37070BDC4F1200500FA05F269
:106B20004EEA020E20FA04F301FA05F243EA0203E8
:106B300021FA04F001F0004121FA04F220EA0200F7
:106B400000EBD3705EEA430E08BF20EAD37070BD3D
:106B500094F0000F0FD101F00046400041EB01011D
:106B600011F4801F08BF013CF7D041EA060195F0FF
:106B7000000F18BF704703F00046520043EB0303B9
:106B800013F4801F08BF013DF7D043EA06037047A6
:106B900094EA0C0F0CEA135518BF95EA0C0F0CD0B1
:106BA00050EA410618BF52EA4306D1D181EA0301F7
:106BB00001F000414FF0000070BD50EA410606BFF1
:106BC0001046194652EA430619D094EA0C0F02D136
:106BD00050EA013613D195EA0C0F05D152EA03367B
:106BE0001CBF104619460AD181EA030101F0004199
:106BF00041F0FE4141F470014FF0000070BD41F0E2
:106C0000FE4141F4780170BD70B54FF0FF0C4CF4BB
:106C1000E06C1CEA11541DBF1CEA135594EA0C0FDA
:106C200095EA0C0F00F0A7F8A4EB050481EA030E27
:106C300052EA03354FEA013100F088804FEA03330E
:106C40004FF0805545EA131343EA12634FEA0222DC
:106C500045EA111545EA10654FEA00260EF000419D
:106C60009D4208BF964244F1FD0404F5407402D2EF
:106C70005B084FEA3202B61A65EB03055B084FEA80
:106C800032024FF480104FF4002CB6EB020E75EB7D
:106C9000030E22BFB61A754640EA0C005B084FEAA5
:106CA0003202B6EB020E75EB030E22BFB61A754622
:106CB00040EA5C005B084FEA3202B6EB020E75EB6D
:106CC000030E22BFB61A754640EA9C005B084FEAE5
:106CD0003202B6EB020E75EB030E22BFB61A7546F2
:106CE00040EADC0055EA060E18D04FEA051545EAE1
:106CF00016754FEA06164FEAC30343EA52734FEA8A
:106D0000C2025FEA1C1CC0D111F4801F0BD141EA02
:106D100000014FF000004FF0004CB6E711F4801F67
:106D200004BF01430020B4F1FD0C88BFBCF5E06F47
:106D30003FF6AFAEB5EB030C04BFB6EB020C5FEA57
:106D4000500C50F1000041EB045170BD0EF0004EAC
:106D50004EEA113114EB5C04C2BFD4EB0C0541EADE
:106D6000045170BD41F480114FF0000E013C90E6DB
:106D700045EA060E8DE60CEA135594EA0C0F08BF9F
:106D800095EA0C0F3FF43BAF94EA0C0F0AD150EA9E
:106D900001347FF434AF95EA0C0F7FF425AF104631
:106DA00019462CE795EA0C0F06D152EA03353FF459
:106DB000FDAE1046194622E750EA410618BF52EAD6
:106DC00043067FF4C5AE50EA41047FF40DAF52EAAA
:106DD00043057FF4EBAE12E74FF0FF3C06E000BF47
:106DE0004FF0010C02E000BF4FF0010C4DF804CD54
:106DF0004FEA410C7FEA6C5C4FEA430C18BF7FEA14
:106E00006C5C1BD001B050EA410C0CBF52EA430C41
:106E100091EA030F02BF90EA020F0020704710F1C1
:106E2000000F91EA030F58BF994208BF90422CBF50
:106E3000D8176FEAE37040F0010070474FEA410C49
:106E40007FEA6C5C02D150EA013C07D14FEA430C67
:106E50007FEA6C5CD6D152EA033CD3D05DF8040BD8
:106E6000704700BF8446104662468C46194663460A
:106E700000E000BF01B5FFF7B7FF002848BF10F1E1
:106E8000000F01BD4DF808EDFFF7F4FF0CBF012026
:106E900000205DF808FB00BF4DF808EDFFF7EAFFA2
:106EA00034BF012000205DF808FB00BF4DF808ED5D
:106EB000FFF7E0FF94BF012000205DF808FB00BF52
:106EC0004DF808EDFFF7CEFF94BF012000205DF8DC
:106ED00008FB00BF4DF808EDFFF7C4FF34BF0120E9
:106EE00000205DF808FB00BF4FEA410C7FEA6C5CB4
:106EF00002D150EA013C0AD14FEA430C7FEA6C5CB4
:106F000002D152EA033C02D14FF0000070474FF02B
:106F1000010070474FEA410212F5001215D211D557
:106F20006FF47873B3EB625212D94FEAC12343F086
:106F3000004343EA505311F0004F23FA02F018BF08
:106F4000404270474FF00000704750EA013005D1D1
:106F500011F0004008BF6FF0004070474FF0000094
:106F6000704700BF4A0011D212F5001211D20DD5A0
:106F70006FF47873B3EB62520ED44FEAC12343F03F
:106F8000004343EA505323FA02F070474FF00000E9
:106F9000704750EA013002D14FF0FF3070474FF098
:106FA00000007047002301461A46184600F04CB80E
:106FB0000A44914200F1FF3300D1704710B511F837
:106FC000014B03F8014F9142F9D110BD0244034631
:106FD000934200D1704703F8011BF9E738B5104B15
:106FE0001D68AB6B0446B3B91820FEF747FC024698
:106FF000A86320B90B4B0C484221FEF757FC0B4904
:107000000B4BC0E900130B4B83600B2383810021E2
:107010000120C2E90401AB6B00221C615A6138BD3A
:10702000D4E50320057E0B001C7E0B000E33CDAB98
:1070300034126DE6ECDE0500034613F8012B002A3E
:10704000FBD1181A013870472DE9F843DFF8B880F2
:107050000646D8F800001F460D46914600F056F847
:10706000254B1C6834B9254C1C60254B13B11B689B
:10707000C4F8883063681F2B07DDD8F8000000F0E3
:1070800047F84FF0FF30BDE8F8834EB3D4F88800DE
:1070900088B91C4B23B9D8F8000000F038F8F0E7A5
:1070A0004FF48470FEF7EAFB0028F4D00023C0E917
:1070B0004033C4F88800636840F8239001229A4066
:1070C00000EB8301D0F800311343C0F80031022EE9
:1070D000C1F8807002BFD0F804311343C0F8043106
:1070E0006368D8F800005A1C0233626044F82350E9
:1070F00000F00EF80020C6E7E8E703205CE7032075
:10710000000000007D580B0038E6032070477047F0
:107110007047000021400B005D400B0085400B00D4
:1071200089400B000000000043616C6C206F6E20F2
:1071300070757265207669727475616C00432020E9
:107140007C202000460064656661756C7420004DEB
:107150005342004C5342003C535049536574746988
:107160006E67732064656661756C743E003C5350B5
:107170004953657474696E677320257325752025DE
:1071800073204D4F444525753E0000000000003E31
:107190005B4F5B3E3E6B4F6B3E1C3E7C3E1C183C87
:1071A0007E3C181C577D571C1C5E7F5E1C00183CE3
:1071B0001800FFE7C3E7FF0018241800FFE7DBE72C
:1071C000FF30483A060E2629792926407F05050713
:1071D000407F05253F5A3CE73C5A7F3E1C1C08086F
:1071E0001C1C3E7F14227F22145F5F005F5F060934
:1071F0007F017F006689956A606060606094A2FF8D
:10720000A29408047E040810207E201008082A1C7E
:1072100008081C2A08081E101010100C1E0C1E0C4A
:1072200030383E3830060E3E0E06000000000000EA
:10723000005F00000007000700147F147F14242A59
:107240007F2A12231308646236495620500008072B
:107250000300001C2241000041221C002A1C7F1C4C
:107260002A08083E0808008070300008080808084E
:10727000000060600020100804023E5149453E00B5
:10728000427F400072494949462141494D33181413
:10729000127F1027454545393C4A49493141211162
:1072A00009073649494936464949291E0000140054
:1072B0000000403400000008142241141414141477
:1072C000004122140802015909063E415D594E7CD5
:1072D0001211127C7F494949363E414141227F418A
:1072E00041413E7F494949417F090909013E4141E8
:1072F00051737F0808087F00417F41002040413FD3
:10730000017F081422417F404040407F021C027FE1
:107310007F0408107F3E4141413E7F090909063E36
:107320004151215E7F091929462649494932030105
:107330007F01033F4040403F1F2040201F3F403817
:10734000403F631408146303047804036159494DF2
:1073500043007F4141410204081020004141417F28
:10736000040201020440404040400003070800209E
:10737000545478407F28444438384444442838449E
:1073800044287F385454541800087E090218A4A4D5
:107390009C787F0804047800447D40002040403DF4
:1073A000007F1028440000417F40007C047804786E
:1073B0007C080404783844444438FC182424181801
:1073C000242418FC7C08040408485454542404045D
:1073D0003F44243C4040207C1C2040201C3C40304A
:1073E000403C44281028444C9090907C4464544C79
:1073F00044000836410000007700000041360800D4
:1074000002010204023C2623263C1EA1A161123A7D
:107410004040207A385454555921555579412254C9
:10742000547842215554784020545579400C1E52CE
:107430007212395555555939545454593955545473
:10744000580000457C410002457D420001457C40DA
:107450007D1211127DF0282528F07C54554500201E
:1074600054547C547C0A097F4932494949323A4490
:1074700044443A324A4848303A4141217A3A4240FB
:107480002078009DA0A07D3D4242423D3D404040CD
:107490003D3C24FF2424487E4943662B2FFC2F2BA0
:1074A000FF0929F620C0887E090320545479410041
:1074B00000447D413048484A32384040227A007AC0
:1074C0000A0A727D0D19317D2629292F282629299E
:1074D000292630484D4020380808080808080808C0
:1074E000382F10C8ACBA2F102834FA00007B0000E7
:1074F00008142A142222142A14085500550055AAEB
:1075000055AA55AAFF55FF55FF000000FF001010B7
:1075100010FF00141414FF001010FF00FF1010F0F3
:1075200010F0141414FC001414F700FF0000FF0006
:10753000FF1414F404FC141417101F10101F101F54
:107540001414141F00101010F0000000001F101081
:1075500010101F10101010F010000000FF1010107D
:10756000101010101010FF10000000FF140000FF9A
:1075700000FF00001F10170000FC04F41414171083
:10758000171414F404F40000FF00F7141414141476
:107590001414F700F7141414171410101F101F14EC
:1075A0001414F4141010F010F000001F101F00004D
:1075B000001F14000000FC140000F010F01010FF79
:1075C00010FF141414FF141010101F00000000F01E
:1075D00010FFFFFFFFFFF0F0F0F0F0FFFFFF0000F3
:1075E000000000FFFF0F0F0F0F0F3844443844FC1A
:1075F0004A4A4A347E02020606027E027E02635531
:107600004941633844443C04407E201E2006027EEB
:10761000020299A5E7A5991C2A492A1C4C720172FD
:107620004C304A4D4D303048784830BC625A463D67
:107630003E494949007E0101017E2A2A2A2A2A441C
:10764000445F444440514A444040444A5140000051
:10765000FF0103E080FF000008086B6B083612365C
:107660002436060F090F060000181800000010103D
:10767000003040FF0101001F01011E00191D1712FB
:10768000003C3C3C3C00000000000000000000000A
:107690000000000000000000000000001D490B0079
:1076A000E15A0B00A1400B0023430B0025430B00C4
:1076B00057430B0033430B0045430B0065420B005F
:1076C00023430B004F450B004D450B006F430B0050
:1076D000AD430B00E7430B002D440B0049440B0066
:1076E000CD440B0000000000000000002D4A0B00FC
:1076F0004D4A0B001D490B00E15A0B007D4B0B005E
:1077000023430B0025430B0057430B0033430B006F
:1077100045430B0065420B0023430B004F450B0014
:107720001B4D0B00C3520B0075520B00E7430B00BF
:107730002D440B0049440B00CD440B000000000019
:107740000000000011420B00E5410B00E7410B0077
:1077500000000000000180000000000000000000A8
:10776000038000000000000000000007C0000000CF
:1077700000000000000007C0000000000000000042
:10778000000FC00000000000000000001FE000002B
:10779000000000000000001FE000000000000000EA
:1077A00000003FE00000000000000000003FF0008B
:1077B00000000000000000007FF00000000000005A
:1077C000001FF87FF0000000000000003FFE7FF087
:1077D000000000000000003FFF7FF00000000000FC
:1077E00000001FFFFBE0000000000000000FFFF999
:1077F000FFC00000000000000FFFF9FFF8000000CC
:1078000000000007FFF1FFFF00000000000003FC84
:1078100073FFFF80000000000001FE3FFFFF8000BB
:107820000000000000FF1E0FFF000000000000002D
:107830007FFE1FFC000000000000003FFFFFF8007B
:107840000000000000000FDFFFE00000000000006B
:10785000001F19FFC0000000000000003F3CFF00B7
:10786000000000000000007E7CF800000000000026
:1078700000007FFE7C0000000000000000FFFFFC15
:107880000000000000000000FFFFFE0000000000FC
:10789000000000FFFFFE0000000000000001FFEFFD
:1078A000FE0000000000000001FFCFFE000000000D
:1078B00000000003FF07FE0000000000000003FCC2
:1078C00007FE0000000000000003F003FE000000BF
:1078D00000000000018000FE000000000000000029
:1078E00000007E000000000000000000003E0000DC
:1078F00000000000000000000C0000000000000775
:107900008000FC000003C0000000078001FC0000B4
:1079100003C0000000078001FC000003C00000005D
:10792000078001E00000001E000000078001E00069
:1079300000001E007FE3F79FF9FDE7787BDFC0FFC3
:10794000F7FFBFFDFDFF787BDFC0FFF7FFBFFDFD49
:10795000FF787BDFC0F0F787BC3DE1FF787BDE007E
:10796000F0F787BC3DE1F0787BDE0000F787803DD3
:10797000E1E0787BDE007FF7879FFDE1E0787BDE4A
:1079800000FFF787BFFDE1E0787BDE00F0F787BC02
:107990003DE1E0787BDE00F0F787BC3DE1E0787BFD
:1079A000DE00F0F787BC3DE1E0787BDE00FFF7FF0B
:1079B000BFFDE1E07FFBDFC0FFF7FFBFFDE1E07F40
:1079C000FBDFC07CF3F39F3DE1E03E7BCFC00000D6
:1079D000000000000000000000FFFFFFFFFFFFFFAE
:1079E000FFFFFFC0FFFFFFFFFD68DB111A31C0FF83
:1079F000FFFFFFFD2B5AFB6AEFC0FFFFFFFFFD4BB0
:107A00005B3B1A33C0FFFFFFFFFD6B5BDB6AFDC012
:107A10000000600000000000000000000000000006
:107A200000E0000000000000000000000000000175
:107A3000E00000000000000000000000000001F075
:107A40000000000000000000000000000003F00043
:107A500000000000000000000000000007F000002F
:107A6000000000000000000000000007F800000017
:107A7000000000000000000000000FF800000003FC
:107A8000C0007E000001E0007F0FF800000003C08E
:107A900000FE000001E000FFEFF800000003C0005E
:107AA000FE000001E000FFFFF800000003C000F04E
:107AB0000000000F007FFE7FC0000003C000F00048
:107AC00000000F003FFE7FF83FF1FBCFFCFEF3BC50
:107AD0003DEFE01FFE7FFF7FFBFFDFFEFEFFBC3DB3
:107AE000EFE01FC6FFFF7FFBFFDFFEFEFFBC3DEFA9
:107AF000E00FE3C7FE787BC3DE1EF0FFBC3DEF0066
:107B000007FF87FC787BC3DE1EF0F83C3DEF0001E9
:107B1000FFFFF0007BC3C01EF0F03C3DEF0001F31F
:107B20007FE03FFBC3CFFEF0F03C3DEF0003E33FBF
:107B3000807FFBC3DFFEF0F03C3DEF0007E73C0039
:107B4000787BC3DE1EF0F03C3DEF0007FFBE0078FF
:107B50007BC3DE1EF0F03C3DEF0007FFFE00787BAC
:107B6000C3DE1EF0F03C3DEF000FFFFE007FFBFF89
:107B7000DFFEF0F03FFDEFE00FFFFF007FFBFFDFD8
:107B8000FEF0F03FFDEFE00FF9FF003E79F9CF9EE8
:107B9000F0F01F3DE7E01FF1FF00000000000000D3
:107BA00000000000001F80FF007FFFFFFFFFFFFFBE
:107BB000FFFFFFE01C007F007FFFFFFFFEB46D882A
:107BC0008D18E000001F007FFFFFFFFE95AD7DB523
:107BD00077E000000F007FFFFFFFFEA5AD9D8D1930
:107BE000E0000006007FFFFFFFFEB5ADEDB57EE0D3
:107BF0000000000000000000514B0B00694B0B001F
:107C00001D490B00E15A0B007D4B0B0023430B0079
:107C100025430B0057430B0033430B0045430B0038
:107C200065420B0023430B004F450B001B4D0B001F
:107C3000C3520B0075520B00E7430B002D440B00A1
:107C400049440B00CD440B000080C0E0F0F8FCFE7E
:107C5000000103070F1F3F7FAED580A8D300408DE2
:107C60002000A1C8DB40A4A62EAFDA02818FDA1271
:107C700081DA02812200FF210000000000000000E4
:107C8000000000002B590B0021590B0017590B0065
:107C90000D590B0001590B00F5580B00F9620B0050
:107CA00001630B00E9580B00E1580B00D7580B009B
:107CB000CD580B0031630B00000810182028303815
:107CC0006E616E00696E66006F7666002E006170F0
:107CD000700025592D256D2D25645425483A254DD4
:107CE0003A2553257A0061736374696D650000005D
:107CF00000000000000000000D5F0B00FD5E0B00A7
:107D0000FF5E0B000000000000000000F35F0B00AE
:107D10005B600B0031600B00E15A0B0023600B002D
:107D2000F55F0B0005600B0055600B0015600B0044
:107D3000ED5F0B000000000000000000ED600B0094
:107D400059610B0031610B00E15A0B0001610B001E
:107D50001D610B000F610B002B610B00EF600B002E
:107D6000F3600B00000000000000000091610B00B8
:107D7000DB610B00B3610B0093610B00BB610B0077
:107D8000C3610B00CB610B00D3610B00000000004E
:107D9000000000009B620B0091620B0087620B00E9
:107DA0003D620B007B620B006F620B00F9620B00FF
:107DB00001630B0063620B005B620B0051620B00FE
:107DC00047620B0031630B00000000000000000060
:107DD000B9620B00C3620B00CD620B00D7620B00CF
:107DE000E1620B00ED620B00F9620B0001630B0016
:107DF00009630B0015630B001D630B0027630B0069
:107E000031630B00005245454E54206D616C6C6F20
:107E10006320737563636565646564002F6D6E74BC
:107E20002F776F726B73706163652F776F726B73EF
:107E3000706163652F4743432D31302D7069706544
:107E40006C696E652F6A656E6B696E732D4743436F
:107E50002D31302D706970656C696E652D34385F19
:107E600032303230313132345F31363036313830C1
:107E70003634312F7372632F6E65776C69622F6EA3
:107E800065776C69622F6C6962632F7374646C69C7
:107E9000622F72616E642E6300000000B1410B001E
:107EA00035590B00AD5A0B00D15A0B008D5D0B00FC
:107EB0009D5D0B00B95D0B00A5620B0009640B0012
:107EC000040000001400000003000000474E5500AD
:107ED000840E20A3DC58C0CF8271A8D08C3C734A9A
:047EE00051267014A3
:047EE400000000009A
:107EE800E67C0B00D8E5032000000000000000003D
:107EF800000000000000000000000000000000007A
:107F08000000000000000000000000000000000069
:107F18000000000000000000000000000000000059
:107F28000000000000000000000000000000000049
:107F38000000000000000000000000000000000039
:0C7F48000000000000000000ECE7032037
:107F5400FFFFFFFF00000102030405060708090AEA
:107F64000B0C0D0E0F101112131415161718191AE5
:087F74001B1C1D1E1F2028002C
:047F7C0078563412ED
:04000003B0004020E9
:00000001FF
